:020000040800F2
:1000000050280020CD2A0008392800083B28000885
:100010003D2800083F280008412800080000000093
:10002000000000000000000000000000532600084F
:1000300043280008000000000D260008452800089D
:10004000FD2A0008012B0008052B0008092B0008D9
:100050000D2B0008112B0008152B0008192B000888
:100060001D2B0008212B0008252B00085D28000807
:10007000292B00082D2B0008312B0008352B0008F8
:10008000BF28000891280008392B00083D2B0008E4
:10009000412B0008452B0008492B00084D2B000878
:1000A000512B0008552B0008592B00085D2B000828
:1000B000612B0008652B0008692B00086D2B0008D8
:1000C000712B0008752B0008792B00087D2B000888
:1000D000812B0008852B0008892B00088D2B000838
:1000E00049280008912B0008952B0008010008D42E
:1000F000012200F01F01DFF808388A40400943F868
:10010000202070470901020003D4DFF8F80781546A
:100110007047DFF8F43702F00F021A4402F8041CAB
:100120007047DFF8E81781B00A6802430A6009687F
:1001300008400090009801B0704730B500F010F80A
:100140000F2503E030B500F00BF803259B00B1FA52
:1001500081F19D408900AC438A402243026030BD5A
:1001600000EB116091FAA1F3B3FA83F391FAA1F1D4
:100170000468704730B5FFF7F3FF0425E6E7C3686E
:10018000090A8B4391FAA1F1B1FA81F18A401A432D
:10019000C2607047C268C1F30F214A40C260704715
:1001A0000FF618020A4412F8011C0818036843F0FD
:1001B0000103036070470FF604020A4412F8011CA1
:1001C000081803685B085B000360704710B50FF206
:1001D000EC730B4413F8011C081804686FF30E1439
:1001E0002243026010BD0FF2D473194411F8012CA0
:1001F000105844F21001084070470FF2C0730B44CE
:1002000013F8011C081843681B0C42EA03424260C1
:10021000704730B50FF2A475039C0D4415F8011C0E
:100220000818102C02D1C260836030BD8260C360A8
:1002300030BD0FF288720A4412F8011C08180368D6
:1002400043F00203036070470FF270720A4412F821
:10025000011C0818036843F00803036070471CB5CD
:1002600000F0ABFA00F066FA00220C210320DFF860
:10027000A04600F0E5FBE06100F055F8A06000F05A
:1002800052F8E06000F04FF8E169206100291CBFDE
:10029000A168002945D0E168002918BF002840D096
:1002A000002002210190009104F1280380220FF226
:1002B000D0610FF24D1000F0C5FE00200321019027
:1002C000009180220FF2A4630FF2BC610FF255106F
:1002D00000F0B8FE606901900421009100238022A3
:1002E0000FF2AC610FF2DD0000F0ACFE0020012146
:1002F00001900091002380220FF29C610FF26D109B
:1003000000F0A0FEA069019000210091002380224E
:100310000FF28C610FF2190000F094FE00F0AEFFB6
:10032000FEE7002016BD03220021012000F088BB5B
:100330003EB500F001F90FF28C651EE0DFF8D41530
:1003400020200860192104F1380013E0192100F081
:1003500040FD9DF80800019920700322284600F016
:100360001DFA0028EAD04FF47A7000F0EEF91D2152
:1003700004F1540000F0A9F9002001F044F92062D2
:1003800000208DF800001922E069694600F09EFC0B
:100390009DF80010A068491E0329EDD8DFE801F0A0
:1003A00004040C03E8E7D1E7192100F012FD9DF8E1
:1003B000081001982170DDE7192100F00AFD0128DD
:1003C000DAD1F4E710B500F0B7F801F01CF92062BB
:1003D00000F0BFF900F015F900F0B2F801F035FBBC
:1003E00001F090FA01F0C6FA01F004FB00F08EF97A
:1003F00000F038F82062606900F0CBFEE8E700000A
:100400003EB500F029F8286201218DF80010102176
:1004100000F019F800F026F828620A2000F0E9FE42
:10042000F2E700003EB500F017F8286202218DF8CF
:100430000010142100F007F800F014F828620A20D8
:1004400000F0D7FEF2E78DF8081001940023E86968
:100450000A22694600F01EBB04460020DFF8B054B3
:1004600001F0D1B8002001F0CEB80000F0B595B091
:10047000142103A801F0D4FB322108A801F0D0FB1D
:1004800000F05AF80FF22455DFF88C64DFF88C7412
:1004900001F0B9F8206203208DF800002FE004F18C
:1004A000D80101911B221FE0A078810624D53220BB
:1004B00000F03CF86428FBD3A07800F0DF00A070C7
:1004C0006421304601F058FB0246294603A801F09A
:1004D000AFFB04F1A60108A801F0CAFB03A901F0D3
:1004E000D3FB08A9019132228DF808200023E0698E
:1004F0000A22694600F0CEFAFFF7B4FF20620A2113
:10050000206900F066FC0128C9D1A078C106CBD5CE
:10051000002000F00BF83228FBD3A07800F0EF00A9
:10052000A07004F1740101912222DDE737F8101068
:1005300026F81010401C70470020DFF8D4437047A5
:100540007CB5DFF8DC03DFF8DC430168DFF8D85363
:10055000DFF8BC6341F0010101600721006800F091
:10056000010000901120009AFFF7CCFD1120FFF749
:10057000BDFD06211020FFF7C5FDDFF884134FF401
:100580008030086042F2900207212046FFF71EFEED
:1005900007212046FFF727FE00902B46DFF88C232B
:1005A00007212046FFF735FE327807212046FFF766
:1005B00024FE42F2A00206212046FFF707FE062194
:1005C0002046FFF710FE009006F586732A460621A6
:1005D0002046FFF71EFEF27806212046FFF70DFEAB
:1005E00007212046FFF725FE07212046FFF72CFEB6
:1005F00006212046FFF71DFE2046BDE87C4006216F
:1006000022E638B50420FFF78CFDDFF82403DFF87D
:100610002443016841F40031016040F20445006860
:1006200000F4003000900922009829462046FFF788
:1006300084FD00F042F800F044F800F03AF840F68B
:100640000805092229462046FFF777FD00F035F816
:1006500000F037F800F02DF8B74AB84B506840F07A
:100660000C0050601921506820F4B0505060642490
:10067000906820F4405090601868400848434FF458
:100680001643B0FBF3F1B1FBF4F304FB13110901C2
:100690003231B1FBF4F000F0F00101EB031100F096
:1006A0000F00401880B21060506840F40050506055
:1006B00031BD01222946204661E503222946204614
:1006C00040E500222946204654E57CB50446904882
:1006D0000D4681788A0718D58178924E01F0FD0188
:1006E000817030460721FFF77EFD009022468E4B39
:1006F00007213046FFF78DFD2A4607213046FFF7D8
:100700007CFD3046BDE87C4012E073BD10B58C48DE
:10071000844C016841F0400101600621026842F00A
:10072000800202602046FFF73BFD2046BDE81040F6
:10073000072135E580B50420FFF7F3FCBDE808404C
:10074000012242F220017B48F7E442F2200179487D
:1007500020E580B51020FFF7E4FC082279497A48AB
:10076000FFF7EBFC0120FFF7DCFC7848016821F083
:10077000F00141F0200101607548016841F4005129
:1007800001600821C26842F40052C2602820FFF7CD
:10079000B9FC70494FF48070086001BD10B5134674
:1007A0005A1EDBB23BB110F8013B11F8014BA342DA
:1007B000F5D0012010BD002010BD10B567480168BC
:1007C000C908C90041F0020101606548016841F4AF
:1007D00080210160026842F480320260016889036E
:1007E000FCD5426822F47C1242F4E81242600168AF
:1007F00041F08071016001688901FCD5426822F0F6
:10080000F002426041688908890041F002014160BC
:10081000416801F00C010829FAD14168514C21F4DA
:10082000E06141F480614160416821F460514160C0
:10083000204601F039FA2046BDE8104001F040BAE8
:1008400045490120087070473148817841F0010125
:100850008170704710B52E4C0020606201216170DC
:100860000721A07840F00200A0702E48FFF7A3FCFB
:10087000A06804F1240100F0E7F901281CBF4FF43F
:100880007A70FFF762FF606A08B100F01FF810BDD0
:100890001FB5FFF751FE0090012121710421A078BE
:1008A00040F00800A0708DF8041004F58672032152
:1008B00002928DF80C100023E0696A4601A900F04D
:1008C0007EF9009808B100F001F81FBD26484FF0EE
:1008D00080510160BFF34F8FBFF36F8F704710B52A
:1008E000104C07212046FFF766FC06212046FFF743
:1008F00062FCBDE810404FF47A7026E7000000006B
:1009000000E100E000E400E018ED00E01810024013
:100910000000002010080140502200208821002003
:10092000141002400000024004440040E428000883
:100930001C10024000080140084400401C01002037
:100940001444004020002004001001401400014025
:100950000004014004E100E048240020002002409F
:100960000010024000A24A0404ED00E05461736BE1
:1009700020322069732072756E6E696E670D0A00F1
:100980005461736B203100005461736B203200009E
:100990005461736B203000005461736B203300008E
:1009A000476174656B656570657200004164632022
:1009B000566F6C203D20256400000000081C304468
:1009C000586C8000454E440038B504000D4602D1F5
:1009D00000F058F8FEE701F0DDF9E26B206C2168C9
:1009E0004243881860600021A1632068E26BA06028
:1009F000521E206C216842438818E0604FF0FF319E
:100A000004F144000170417075B92069A0B104F18E
:100A1000100000F052FD78B1DFF824164FF080503E
:100A2000086000F080FA07E004F1100001F026FAF7
:100A300004F1240001F022FA01F0C5F9012032BDD1
:100A4000F8B506000C46174602D100F01BF8FEE789
:100A5000002C0EBF502004FB06F0503001F058FA75
:100A600005000DD0002C0EBF2D6005F15000286050
:100A7000EE632C6401212846FFF7A6FF85F84C7031
:100A80002846F2BD502080F31188BFF34F8FBFF38B
:100A90006F8F70472DE9F64782B004461E465027F7
:100AA00014B900F03EFAFEE75FEA010A01D1206CBA
:100AB00060B9022E02D1E06B01280AD100F0C0FD1E
:100AC00050B9039840B100F02CFAFEE700F029FA83
:100AD000FEE700F026FAFEE72746002400F074F94E
:100AE0002EE0039800284BD014B900F00DFA012431
:100AF00001F069F900F0ECFB01F04CF907F144005A
:100B000000F005FA04BF0022027000F005FA04BFED
:100B10000022427001F057F900F04DF8002844D14E
:100B200001F038F9B86BF96B884214BF0025012534
:100B300001F049F945BB384600F042FA00F0CEFB1F
:100B400001F028F9B86BF96B884201D3022EC8D1A5
:100B500032465146384600F0EBF9796A29B107F17F
:100B6000240000F0AAFC08B904E018B1C8F800900D
:100B700000F0D9F901F027F9012004B0BDE8F087B1
:100B800001F021F90020F8E7039907F1100000F0C7
:100B90007EFC384600F014FA00F0A0FB0028CFD10C
:100BA000C8F8009000F0BFF9CAE7384600F008FA2C
:100BB00000F094FBE6E703A9684600F0C0BC2DE90D
:100BC000F8430446884615461E46502714B900F0DF
:100BD000A8F9FEE7B8F1000F01D1206C20BB022E6E
:100BE00002D1E06B012822D101F00CF9EFF3118959
:100BF00000F062F801D3022E21D194F945703246FB
:100C00004146204600F094F917F1010F12D1606AB5
:100C100098B104F1240000F050FC002818BF002D0A
:100C20000BD00120286008E000F07BF9FEE700F01F
:100C300078F9FEE77F1C84F84570012000E0002071
:100C400089F31188BDE8F283F8B504460D465027B4
:100C500014B900F066F9FEE7206C10B100F061F9FC
:100C6000FEE7206808B96068D0B901F0CBF8EFF36F
:100C7000118600F021F81BD294F94510401C11F1A7
:100C8000010FA0630FD1606A80B104F1240000F06D
:100C900014FC002818BF002D08D00120286005E0B2
:100CA00000F03FF9FEE7491C84F84510012000E000
:100CB000002086F31188F2BD87F31188BFF34F8FB0
:100CC000BFF36F8FA06BE16B884270472DE9F7434C
:100CD00006460F460024502526B985F3118800F0FA
:100CE00022F9FEE70FB9306C48B900F0A9FC78B9D9
:100CF000029868B185F3118800F015F9FEE785F3D5
:100D0000118800F010F9FEE700F0FCF800F0E6FAB8
:100D100001F040F8B56B00F057F82DB90298C8B94A
:100D200001F051F8002013E03946304600F034F964
:100D30006D1EB563306940B106F1100000F0BDFBD7
:100D400018B1C8F8009000F0EEF801F03CF801206E
:100D5000BDE8FE8314B900F0D7F8012401F033F8A0
:100D600000F0B6FA01F016F806F14400415711F10F
:100D7000010F04BF0022027000F0CEF804BF002271
:100D8000427001F020F802A9FFF716FF0028304654
:100D900010D100F049F90028B6D000F0AEF800F00C
:100DA000B1F800F09BFA0028B2D1C8F8009000F02A
:100DB000BAF8ADE700F004F900F090FA304600F020
:100DC00033F90028A4D0ADE7DFF874824FF08059E2
:100DD00070472DE9F24382B00646002400255027D3
:100DE00016B900F09EF8FEE7306C10B100F099F8EB
:100DF000FEE700F025FC40B9029830B100F091F810
:100E0000FEE700F07FF800F069FA00F0C3FFB06B76
:100E1000FFF7DAFF30B90298D0B9002D68D000F0A2
:100E200080F8FEE7401EB063306810B900F0F3FCB4
:100E30007060306940B106F1100000F03EFB18B15F
:100E4000C8F8009000F06FF800F0BDFF012052E0FC
:100E500014B900F059F8012400F0B5FF00F038FA99
:100E600000F098FF06F1440000F051F804BF0022A2
:100E7000027000F051F804BF0022427000F0A3FF9E
:100E800002A9FFF799FE002830461AD100F0CCF8ED
:100E90000028B6D0306838B900F07CFF706800F0E8
:100EA000DBFB054600F08FFF00F027F800F02AF882
:100EB00000F014FA0028A8D1C8F8009000F033F828
:100EC000A3E700F07DF800F009FA304600F0ACF836
:100ED00000289AD075B100F05DFF706A00281DBF30
:100EE000306B0168C1F107010021706800F042FC1D
:100EF00000F069FF0020BDE8FE83029906F124009E
:100F000000F0C5BA30465BE0684600F011BB90F9CE
:100F1000001011F1010F704790F9011011F1010F4C
:100F2000704787F31188BFF34F8FBFF36F8F704700
:100F3000F8B506461546B46B326C002742B93068E6
:100F400030BB706800F0CAFB0021074671601FE0EB
:100F500065B9B06801F0B6F8B068316C72680844E1
:100F60009042B06014D33068B06011E0F06801F0D6
:100F7000A9F8306CF16840420144F1603268914256
:100F800002D271680844F060022D01D104B1641EE0
:100F9000641CB4633846F2BD026C002A0B4600D1D3
:100FA000704710B5C16844681144C160A14224BFB4
:100FB0000168C160C168BDE81040184601F082B800
:100FC000F8B5054600F0E6FE05F1440494F9016029
:100FD00007E005F1240000F070FA08B100F0E2FA31
:100FE000761E70B2012802DB686A0028F1D14FF04A
:100FF000FF36667000F0E7FE00F0CCFE94F900705A
:1010000007E005F1100000F058FA08B100F0CAFA44
:101010007F1E78B2012802DB28690028F1D12670F2
:10102000BDE8F14000F0CFBE10B5044600F0B2FEBE
:10103000A06B441EA44100F0C6FEE00F10BD0000EE
:1010400004ED00E02DE9F84F824615460F4699461B
:10105000A80000F05DFF5FEA000B79D05C2000F093
:1010600057FF040071D00A9EC4F830B0A522A90031
:10107000584601F033F8206B00EB85010D1FED0899
:10108000ED0000217A5C631883F83420785C10B19D
:10109000491C1029F6D3002084F84300062E0B9F2C
:1010A00088BF062604F14408E662C8F80C00C8F8B8
:1010B0000860201D00F0EFFE04F1180000F0EBFEC8
:1010C0002461C6F10706A66164620020C8F810001A
:1010D00088F814004A465146284600F0F9FD206081
:1010E00007B13C6000F056FEDFF8EC55DFF86066B3
:1010F000E86C401CE8644FF01409A86A60BBAC625D
:10110000E86C012830D1002709FB07F0301800F007
:10111000B5FE7F1C062FF7D905F1740000F0AEFE76
:1011200005F18807384600F0A9FE284600F0A6FE23
:1011300005F1140000F0A2FE05F1380000F09EFE5B
:1011400005F17400E8622F630EE0584600F069FF75
:101150004FF0FF30BDE8F28FA86D28B9E06AA96AA8
:10116000CA6A904228BFAC62A86E401CA866C8F844
:10117000000000F040FB09FB00F2211DB01800F058
:101180008DFE00F020FEA86D08B100F055FB012097
:10119000E0E738B5044600F0FDFDDFF83C5504B942
:1011A000AC6A00F0C2F900F03FF808B100F0E3F8D3
:1011B000A86E401CA866A86A844208D1211D05F1CA
:1011C000140000F06BFE686B401C686307E0E86C7D
:1011D000401EE864204600F01CFA00F024FA00F0FB
:1011E000F2FDA86D20B1A96A8C4201D100F02DF862
:1011F00031BD80B588B1DFF8E024116F21B100F076
:101200000FF800F088F9FEE7116F491C1167002103
:1012100000F024FB00F062F808B900F077F901BD96
:10122000502080F31188704768B9E16ADFF8202503
:1012300014234B43D05830B9686D012202FA01F1F2
:1012400020EA01016965A06A7047286F38B1502112
:1012500081F31188BFF34F8FBFF36F8FFEE7DFF885
:10126000F4154FF080500860BFF34F8FBFF36F8FBE
:101270007047211D14204243981870473EB5DFF88F
:101280003C460FF2486104F19C0001900025009556
:10129000002380220FF21930FFF7D4FE50210128DD
:1012A0000ED181F3118800F036F94FF0FF30E0667F
:1012B0000121A1652565BDE8374000F027BD37BD98
:1012C00010F1010FFBD181F3118800F024F9FEE742
:1012D000DFF8E805016F491C0167704770B5DFF85A
:1012E000F863306F0024002528B9502181F311885C
:1012F00000F011F9FEE700F04DFD306F401E306741
:10130000306F002836D1F06CD8B933E0F068C4688B
:1013100000F031F800F009F9E06A716DDFF8383556
:10132000012282401143716514225043211D18444B
:1013300000F0B4FDE06AB16ACA6A904224BF01219C
:10134000316630680028E1D10CB100F06CF9F46D21
:101350003CB100F014F808B101203066641EF8D1E9
:10136000F565306E30B1DFF858154FF0805001252B
:1013700000F0D0F859E204F1180000F0B5BD2DE9F5
:10138000F843DFF85473386F002600284FD13C6DC6
:10139000641C3C6511D1F86A006828B1502181F3C2
:1013A000118800F0B8F8FEE7F86A396BF962386323
:1013B000786E401C786600F036F9F86EDFF8989485
:1013C00084424FF0140828D31AE0281D00F08CFD49
:1013D000A86A18B105F1180000F086FDE86A796D79
:1013E000012282401143796508FB00F0291D484421
:1013F00000F054FDE86AB96ACA6A904228BF012623
:10140000F86A006830B1F86AC168CD6868688442DB
:10141000DBD201E04FF0FF30F866B86AC06A08FB23
:1014200000F059F80010022904D3012602E0F86DFB
:10143000401CF865386E00B10126FAE1DFF8982209
:10144000106F10B101211166704710661421506DA4
:10145000B0FA80F3C3F11F034B43DFF8FC13C85805
:1014600038B9502181F31188BFF34F8FBFF36F8FCD
:10147000FEE7C81800F108034168496841609942D5
:1014800004BF496841604068C1689162704710B507
:101490000C4620B9FFF7C4FE00F03DF8FEE7DFF888
:1014A0003822936A03F1180100F005FD2046BDE8DB
:1014B0001040FFE7012100F0D1B938B5C068C46819
:1014C00024B9FFF7ADFE00F026F8FEE7FFF753FF63
:1014D000DFF80452286F60B900F027F8E26A686DFF
:1014E000DFF874330121914008436865FFF7C1FEBE
:1014F00002E004F11801284600F0D0FC00F010F8DA
:1015000002D20120286632BD002032BDDFF844132C
:101510004FF080500860BFF34F8FBFF36F8F70475D
:10152000A86AC16AE06A81427047201D00F0DCBCF5
:10153000DFF888134A6E0260096D41607047F8B5A4
:1015400004460D46502024B980F31188FFF7E3FFCD
:10155000FEE725B980F31188FFF7DDFFFEE700F015
:1015600019FCDFF85803016D62682E688B1A16F1BA
:10157000010F0ED0476ED4F800C0674501D09142EC
:101580000BD2B34207D2F31A2B60416E2160006D7B
:101590006060002402E000202860012400F013FCB9
:1015A0002046F2BDDFF814130120086670470000E2
:1015B00070B5674CDFF8045311E000F0EBFB286ACC
:1015C000C668301D00F090FCE86C401EE864686B53
:1015D000401E686300F0F7FB304600F01AF8686BB5
:1015E0000028EAD121680229F9D3FFF78FFFF6E737
:1015F0000146002000E0401C11F8012BA52AFAD07A
:101600008003000C704710B9DFF8B002806A006BED
:10161000EEE710B50446206B00F003FD2046BDE860
:10162000104000F0FEBC2C49C86A006810B94FF0A9
:10163000FF3203E0C86AC268D0684268CA66704771
:10164000DFF87812886D08B901207047086F08B973
:1016500002207047002070472DE9F0410446002029
:10166000002C35D01C4DE16AAA6AD36A994229D26E
:10167000A069002804D4A86AC16AC1F10701A16168
:101680001427E16ADFF8D0816069794341448842D8
:1016900014D1FFF74AFF0126002801BFE16A07FBCA
:1016A00001F258F80200002800F05CF8A86AC06A4D
:1016B000E0628640696D00F04DF808E0A86AC16AF2
:1016C000E16204E0E16CAA6AD36A994200D2012087
:1016D000BDE8F08100000000182300202DE9F04152
:1016E00004460021002C2FD0DFF8D051A86A5022E8
:1016F000844204D082F31188FFF70DFFFEE7206DCE
:1017000000F080F8E26AE36C401E9A4220651BD02C
:10171000D0B9FFF70AFF01261427DFF83C81002823
:1017200001BFE16A07FB01F258F80200002800F04F
:1017300019F8E06CE062C0F10700A061E06A696D31
:10174000864000F007F801210846BDE8F08100005E
:10175000B82300200E4347436E65211D08EB0700A8
:1017600000F09CBB05D1686D06FA01F120EA010189
:1017700069657047F8B504003CD0206D502200F038
:1017800041F8E36C994238BF1946E36A8B4231D085
:1017900001282FD1DFF82451A86A844204D182F3B2
:1017A0001188FFF7B8FEFEE7A069DFF8AC60E162E0
:1017B00000285CBFC1F10701A161142761697B4367
:1017C000F218914216D1FFF7B0FE002801BFE16A7E
:1017D00007FB01F2B058002806D1686D012202FA19
:1017E00001F120EA0101696500F005F84743211D78
:1017F000F01967E0F1BD0122E06A696D8240114392
:101800006965704730B982F31188BFF34F8FBFF31A
:101810006F8FFEE77047DFF8A410886A18B1886AF6
:10182000026D521C0265886A704700F0CCFA2846A7
:1018300070BD3046BDE8F283A86AC16AE06A8142A1
:1018400007D21F4A4FF080511160BFF34F8FBFF393
:101850006F8F704704ED00E0B8230020F8B5174DF6
:101860002F6D0C46A96A0646081D00F03DFB30B9F5
:10187000A86A696DC06A012282409143696516F1C8
:10188000010F05D124B1A86A011D05F1380019E046
:10189000A86AF6194660BE42A86A05D2011D286BE7
:1018A000BDE8F44000F007BB011DE86A00F003FB4F
:1018B000E86E864238BFEE66F1BD000018230020B6
:1018C00004ED00E0BDE8F44000F0E8BA49444C45BE
:1018D000000000000901020002D4934881547047BF
:1018E000924B02F00F021A4402F8041C7047904910
:1018F00081B00A6802430A600968084000900098B5
:1019000001B0704718B58B488B49036809688B4A4A
:1019100013F4E06F0368C3F30223D25C846944F0DC
:10192000020484610EBFD140D1404900806900F0BB
:1019300002004FF6FE730090B1FBF3F2521C0098C8
:101940007F4B6420541E4243B1FBF2F09C62401E68
:10195000D8620020196821F0700119601863596875
:1019600021F0700141F020015960186840F0010039
:10197000186011BD10B50420FFF7B9FF7148016868
:1019800021F47021016012200821FFF7A3FF6E49A6
:101990004FF4802008604FF40070FFF7A8FF6B48F9
:1019A0006B4A0168136804680168C90717D40268A4
:1019B00022F4602242F400220260016821F0020158
:1019C0000160026842F480720260416A21F4700191
:1019D0004162C16A4909490141F00401C1620168DB
:1019E0000168CA0705D4816821F4E04141F48051BF
:1019F000816010BD82B00020009054490868C00783
:101A000014D40A6842F001020A60202001E0009824
:101A1000401E009000980028F9D10A6842F00402A4
:101A20000A600868800810F00100FAD10868C00751
:101A300004D50A6842F480120A6004E04FF47A7018
:101A400002B0FEF782BE02B0704780B509210B20BC
:101A5000FFF740FF3C484FF4006101603D480268D9
:101A600042F00102026000683B4A00F00100009071
:101A700000983A4801686FF30E1141F4145141F097
:101A8000A001016082603649C1604268120C1204F4
:101A900042F064024260016841F0020101600268A4
:101AA00042F004020260016841F00801016002682E
:101AB00042F00102026001BD80B500F02BF88A06F9
:101AC00003D4037843F02003037000F028F80128C2
:101AD0001CBF4FF47A70FEF738FE10E080B500F0BE
:101AE00019F8CA0603D4037843F01003037000F01A
:101AF00016F801281CBF4FF47A70FEF726FE0098F6
:101B000038B118484FF080510160BFF34F8FBFF3D9
:101B10006F8F01BD0020009013480178704769461F
:101B200012480068FFF790B800E400E018ED00E00C
:101B300018100240041002401C010020F42A000882
:101B4000000400400008014000E100E008240140DA
:101B500008280140141002404C24014008000240B3
:101B60008821002004ED00E0020000201000002089
:101B70004FF47A70FEF7E9BDF0B50022002316E0BD
:101B800030F8134030F81650A5420CD22C1920F82A
:101B9000134030F81650641B20F8164030F81350EC
:101BA0002C1B20F81340761C8E42E9DB3B468B420F
:101BB00002DA5F1C3E46F7E70A23A1F10A0503E0BB
:101BC00030F81340A2185B1CAB42F9DB1439B2FBAE
:101BD000F1F189B240F6E440414340F6FF72B1FBB7
:101BE000F2F080B2F0BD30B4002513E050F8042BC1
:101BF000D30744BFA9F101039A18091F042942F829
:101C0000045BFAD213468C0744BF15809B1CC9079E
:101C100048BF1D7050F8041B0029E7D130BC704745
:101C2000002200F05FBA0268531C03601170704715
:101C30000CB430B583B00A4606A9029104460025CB
:101C40000194009502AB01A9084878441E3000F0C9
:101C500063FA019A157000284EBF04460198041BD0
:101C6000204603B030BC5DF80CFB00BFBBFFFFFF9C
:101C70005FEA000C11F8012B00F8012B12B111F8EA
:101C8000012BF9E760467047034600E05B1C1A78B9
:101C9000002AFBD111F801CB83F800C013F8012B07
:101CA000002AF7D1704743004FF47A720649B0FB1F
:101CB000F2F0401E486000238B60052008607047EA
:101CC000024908607047000010E000E01C0100209D
:101CD000490810B54900A0F10C034FF08074596019
:101CE0009C600FF20D01196040F8202D203810BDC6
:101CF00053494A68502012F1010F80F31188BFF355
:101D00004F8FBFF36F8F00D0FEE7FEE71CB54D4944
:101D10000A780192FF230B7007220C788DF800409F
:101D20009DF80000464C00F050002070A26006E0D4
:101D3000401EA0609DF8000040008DF80000A068E3
:101D40009DF800201306F3D4C0F10702042A02D044
:101D500000F018F8FEE7000200F4E060A0600198CF
:101D600008703948016841F470010160026842F06E
:101D70007042026000F070F80020606000F079FCB2
:101D8000002016BD502080F31188BFF34F8FBFF3A2
:101D90006F8F7047502080F31188BFF34F8FBFF3D0
:101DA0006F8F27494A68521C012A4A600AD1274985
:101DB0000A68130606D080F31188BFF34F8FBFF374
:101DC0006F8FFEE770471E49486838B9502080F38E
:101DD0001188BFF34F8FBFF36F8FFEE7401E48603F
:101DE00008BF80F31188704780B5FFF7CBFFFFF77E
:101DF000C6FA18B115494FF080500860002282F3EE
:101E0000118801BD10B5EFF30580502110280C4A50
:101E100009D30F4B185C1478A04204D281F31188C7
:101E2000FFF7B3FFFEE790680A4A136803F4E06324
:101E3000984204D281F31188FFF7A7FFFEE710BD97
:101E40001001002000E400E020ED00E004ED00E0DF
:101E5000F0E300E00CED00E00648074B00210160D4
:101E6000816064221968B1FBF2F2521E42600721C0
:101E70000160704710E000E01C0100204FF0FF32CD
:101E800000F1080182604160C16000F10802026156
:101E900000210160704700210161704710B5426860
:101EA0004A6093688B609468616091600861016822
:101EB000491C016010BD30B50A6812F1010F08BF5E
:101EC000036907D000F1080300E023465C68256839
:101ED000AA42FAD25A684A6091608B6059600861E0
:101EE0000168491C016030BD4368016982689A60DD
:101EF000836842685A604A68824204BF83684B60C4
:101F0000002202610868401E0860086870470000EF
:101F10002DE9F8430446FFF7DBF9694FB8684FF045
:101F20000009002508BB07F1180307F1180113F099
:101F3000070F4FF400500A4605D0CA1DD208D20040
:101F4000C2F50050081880180838C008C0003A6070
:101F50007D60B86045600560831A5360106050680A
:101F60003861F8604FF0004078614FF050087869B0
:101F7000044246D1002C44D0083414F0070F1FBF90
:101F800004F1080004F00704041B14F0070F02D04A
:101F900000F040F8FEE7A4B3F868A04231D33E68F1
:101FA000394601E0314606467068A04202D23068E8
:101FB0000028F7D1B868864223D00A6830680860E4
:101FC00002F108097268121B112A0CD3311911F0A1
:101FD000070002D000F01EF8FEE7301D02517460C9
:101FE000084600F048F87168F8683A69401AF860E5
:101FF000904238BF3861786901437160356009F0FB
:102000000705FFF76BF915B100F004F8FEE7484645
:10201000BDE8F28388F31188BFF34F8FBFF36F8F52
:102020007047002800D1704738B5A0F10804244D4E
:1020300061686A695023114202D100F015F8FEE789
:10204000206810B100F010F8FEE791436160FFF7DF
:102050003FF9E96860684118E960204600F00BF834
:10206000BDE83140FFF73AB983F31188BFF34F8FD2
:10207000BFF36F8F704730B511490A4600E01A462A
:1020800013688342FBD35368D418844203D1406859
:10209000C3185360104643681468C518A54208D198
:1020A00089688C4204D06168CB184360246800E0E2
:1020B0000C460460824218BF106030BD0000000072
:1020C000700100204AB1000011F8013B521E00F8D7
:1020D000013B1CBF11F8013BF8E7704762F30F2288
:1020E00062F31F4200B500BF1300964694461039B4
:1020F00028BFA0E80C50FAD85FEA417C28BF0CC08A
:1021000048BF40F8042BC90728BF20F8022B48BF5E
:1021100000F8012B00BD00002DE9F84F96B01646DF
:1021200004911F46209ADFF8B4830DF13601002395
:102130001491CDE900334A704FF0FF3182460A9383
:102140000EAD15910CE02346324603A9504600F02F
:1021500031FA002800F1C18001E0F4D501243619DC
:102160003078252805D10021002207910892099195
:102170000BE06A464FF0FF31304600F0BBFA040036
:10218000EBD10A98ACE141F0010116F8010F2028CB
:10219000F9D023280CD02B2804D02D2805D03028A6
:1021A00009D00BE041F00201EFE741F00401ECE758
:1021B00041F00801E9E741F01001E6E72A280CD1D7
:1021C0003A6852F8040B3A6000280C9003D540425C
:1021D0000C9041F00401761C10E00C9209E00C9880
:1021E000404505DA00EB800302EB4302303A0C92E3
:1021F000761C3278A2F130000A28F0D330782E28ED
:1022000002D015980B9021E016F8010F2A2806D16C
:10221000386850F8042B38600B92761C16E02D2895
:102220000CBF761C002000220B920AE040B90B9AEA
:10223000424505DA02EB820403EB4403303B0B9387
:10224000761C3378A3F130020A2AEFD3ADF83410AC
:102250000FF29030317800F051FA08B116F8010B06
:102260008DF836009DF83600682804BF317868295B
:1022700003D162208DF83600761C0EA8069016F861
:10228000012B252A114613D0582A4BD0632A00F07F
:10229000A880642A18BF692A6FD06F2A42D0702A9A
:1022A00037D0732A07D0752A18BF782A3AD0A1E010
:1022B000012207929BE0386850F8044B386005947F
:1022C00094B91499487858B10FF2203000F022FAEE
:1022D0004FF0FF34241A00F097804FF0FF30FFE0FA
:1022E0000FF2243005908FE0DDF82C90B9F1000F4B
:1022F00004D5204600F02EFA044608E04A460021A4
:10230000204600F043FA002814BF041B4C460894F2
:102310007AE0386850F8041B386003910EA90591E3
:1023200078215AE09DF83600622802D0682806D04D
:102330000BE0396851F8040B3960C0B209E0396824
:1023400051F8040B396080B203E0396851F8040B8E
:10235000396003909DF83400010739D503980028AF
:1023600036D042F02001782932D107983021295403
:10237000401C431C07932A542AE09DF8360062282B
:1023800002D0682806D00BE0396851F8040B396098
:1023900040B209E0396851F8040B396000B203E03B
:1023A000396851F8040B39600028039002D507986A
:1023B0002D210AE0BDF83400810702D507982B21B2
:1023C00003E0C00704D5079820212954401C07903A
:1023D0000EA8079901440591114603A800F083F85F
:1023E00012E001200790386850F8041B38608DF81F
:1023F000381009E001210791252311008DF83830AC
:1024000002D0022007906A700C980799099A401A26
:102410000899801AA0EB01099DF83400410711D4F6
:102420002020B9F1000F8DF808000BDD4C46012388
:1024300002AA03A9504600F0BDF800287FF44DAF72
:10244000641EF4D1079C0DF1380B64B11BF8011B1D
:102450000498D047002804903FF43FAF0A98401CEE
:10246000641E0A90F2D1099C3020002C8DF80800DF
:102470000ADD012302AA03A9504600F09BF80028B8
:102480007FF42BAF641EF4D1DDF814B0089C64B166
:102490001BF8011B0498D047002804903FF41DAF9F
:1024A0000A98401C641E0A90F2D19DF8340041073E
:1024B0007FF556AE2020B9F1000F8DF808007FF7A8
:1024C0004FAE4C46012302AA03A9504600F072F811
:1024D00000287FF402AF641EF4D141E6CBCCCC0CD3
:1024E00017B0BDE8F08FF0B402466F29D46808BF7A
:1024F000082605D041F02000782814BF0A261026AF
:1025000018251368642918BF6929184602D1002BC1
:1025100048BF404258B9136A4BB9082E26D192F8E9
:102520002800010722D530201725E0751EE0B0FBFA
:10253000F6F706FB170030306D1EC3B23A2BA4BF6E
:10254000A1F1510318186055380003D0936867193A
:10255000BB42ECD3082E09D192F82800010705D51B
:10256000605D302802D06D1E30206055C5F1180323
:10257000106A536161198342916008DA118DC31AA0
:102580004FF6EF70014093611185F0BC7047002851
:102590000ED592F8280000F01400102808D1546AD3
:1025A00011699069641A241AE31A012BA8BF936178
:1025B000F0BC7047F8B505460E4617461C4600208D
:1025C0005CB117F8011B7068A847706030B1F06902
:1025D000401CF0610020641EF3D1F2BD4FF0FF30CB
:1025E000F2BD0000686C747A4C0000007072696E75
:1025F00074665F733A20626164202573206172679C
:10260000756D656E7400000000000000EFF3098036
:10261000BFF36F8F1D4B1A6820E9F00F106008B5EB
:102620004FF0500080F31188BFF34F8FBFF36F8FCF
:10263000FEF704FF4FF0000080F31188BDE808406A
:1026400019680868B0E8F00F80F30988BFF36F8F4E
:1026500070470E4B19680868B0E8F00F80F30988DE
:10266000BFF36F8F4FF0000080F311884EF00D0E16
:10267000704707480068006880F3088862B661B652
:10268000BFF34F8FBFF36F8F00DF000040230020A8
:1026900008ED00E070B45368D41801E05B1C491EDB
:1026A000042B08DA00291FBF057804F8015B10F835
:1026B000016B002EF2D1536070BC704738B51446E0
:1026C0001D4661B1FFF7E6FF61686A6B20469047DF
:1026D0006FF00102811A02D0491E01D001E003E02F
:1026E00005E00021616032BD6FF0010032BD4FF0A6
:1026F000FF3032BD004BE1E720010020C9B2027873
:102700008A421AB11CBF10F8012FF9E718BF002048
:102710007047000080B500B906A005490B681BB1E1
:1027200022220021984701E000F05CF8222002BD3F
:1027300044240020636F6E73747261696E74206844
:10274000616E646C65723A20626164206D657373BA
:102750006167650000F10103810704D010F8011BD7
:10276000820781B1FAD10268A2F10131914311F0DF
:10277000803104BF50F8042FF6E709BAB1FA81F1AD
:1027800000EBD100401CC01A70470000C9B283079B
:1027900006D0521E22D310F8013B9942F7D11FE018
:1027A000083A13D302F1040241EA012141EA01414E
:1027B00050F8043B121F21BF4B40A3F1013C2CEA0F
:1027C000030C1CF0803FF3D0C9B2001F083210F890
:1027D000013B521E28BF91EA030FF8D818BF012011
:1027E000401E7047012000F001B8000080B500F0E5
:1027F00007F8024A11001820ABBEFBE726000200D2
:1028000010B500F013F802000023DB430024106829
:10281000984203D011000220ABBE14605068984269
:1028200003D0111D0220ABBE546010BD014870479B
:1028300000000000680100207047FEE7FEE7FEE7A9
:10284000FEE77047FFF7D0BA24480168890404D531
:102850004FF400520260FDF7F3BF704710B5204CF3
:102860002068800703D502216160FFF725F9206801
:10287000400703D504216160FFF730F920680007A5
:1028800005D508216160BDE81040FFF771B910BDA2
:1028900013480168490104D54FF080624260FDF79A
:1028A000D3BF0168890104D54FF080724260FDF703
:1028B000D1BF0068000148BFFEF711B87047084853
:1028C0000168890204D54FF480124260FDF7E0BF31
:1028D0000068000248BFFEF702B8704714040140C8
:1028E0000000024053544D3332463178782055531E
:1028F000415254204C4C20415049204578616D7024
:102900006C65203A2054582F525820696E20444D4F
:1029100041206D6F64650D0A436F6E66696775725D
:102920006174696F6E205541525420313135323017
:1029300030206270732C20382064617461206269D9
:10294000742F312073746F70206269742F4E6F2062
:102950007061726974792F4E6F20485720666C6FD2
:102960007720636F6E74726F6C0D0A506C656173C3
:102970006520656E7465722027454E442720737468
:1029800072696E67202E2E2E0D0A0000F0B40246EA
:10299000106895681318506803EB5004C0071CD5E5
:1029A0004D441AE013F8017B05F8017B491EF9D16B
:1029B00098B113F8011BC6F38106032E08BF13F864
:1029C000016B01EB06214942801C294405D011F816
:1029D000016B05F8016B401EF9D1A3420ED013F82C
:1029E000016B16F0030104BF13F8011BC91C300969
:1029F0000F28DBD113F8010B0F30D7E7F0BC02F141
:102A00000C00704710B50E4A0E49106840F00100E6
:102A1000106053680C480B40536014680440146005
:102A2000116821F4802111604FF41F01506820F4D7
:102A3000FE00506091604FF00060044A106010BDCD
:102A4000001002400000FFF8FFFFF6FE08ED00E076
:102A500010B5074979441831064C7C44163404E01B
:102A60000A68081D114488470146A142F8D110BDEB
:102A700008000000240000006FF1FFFFDC220000CE
:102A8000700100200000000005FFFFFF0C010000A6
:102A9000380100000000002000F00DF8002801D0EF
:102AA000FFF7D6FFAFF300800020AFF30080FDF703
:102AB000D6FB00F002F80120704700F001B80000DA
:102AC00007463846FFF792FEFBE7000001488047C3
:102AD00001480047052A0008DD2A0008AFF30080FE
:102AE000AFF30080FFF7D8FF0078401E8041C0435D
:102AF000C00F70470000000001020304FFF7FEBF93
:102B0000FFF7FEBFFFF7FEBFFFF7FEBFFFF7FEBFF9
:102B1000FFF7FEBFFFF7FEBFFFF7FEBFFFF7FEBFE9
:102B2000FFF7FEBFFFF7FEBFFFF7FEBFFFF7FEBFD9
:102B3000FFF7FEBFFFF7FEBFFFF7FEBFFFF7FEBFC9
:102B4000FFF7FEBFFFF7FEBFFFF7FEBFFFF7FEBFB9
:102B5000FFF7FEBFFFF7FEBFFFF7FEBFFFF7FEBFA9
:102B6000FFF7FEBFFFF7FEBFFFF7FEBFFFF7FEBF99
:102B7000FFF7FEBFFFF7FEBFFFF7FEBFFFF7FEBF89
:102B8000FFF7FEBFFFF7FEBFFFF7FEBFFFF7FEBF79
:102B9000FFF7FEBFFFF7FEBFF00312A70000030020
:102BA0000110254920414D20494E205441534B31BD
:102BB0000D0A0052656365697665642073747269F5
:102BC0006E67206D6174636865641AF200001CB062
:102BD000016E6F7420501B41444320444D412068D6
:102BE000616C66207472616E7366657220636F6DCE
:102BF000706C657424C1016132F0021D66756C6CE5
:102C000032F00C04495352206469646E27742066C4
:102C100069722BF1000112AA013126F0071D24F47C
:102C200000A61C00080100016002E92A00083361C7
:072C30003C52FF010000000F
:0400000508002ADDE8
:00000001FF
