:020000040800F2
:10000000D8250020451F0008451D0008471D000891
:10001000491D00084B1D00084D1D00080000000090
:10002000000000000000000000000000EF0D0008CC
:100030004F1D000800000000A90D0008511D000818
:10004000611F0008651F0008691F00086D1F000878
:10005000711F0008751F0008791F00087D1F000828
:10006000811F0008851F0008891F00088D1F0008D8
:10007000911F0008951F0008991F00089D1F000888
:10008000971D0008691D0008A11F0008A51F000892
:10009000A91F0008AD1F0008B11F0008B51F000808
:1000A000B91F0008BD1F0008C11F0008C51F0008B8
:1000B000C91F0008CD1F0008D11F0008D51F000868
:1000C000D91F0008DD1F0008E11F0008E51F000818
:1000D000E91F0008ED1F0008F11F0008F51F0008C8
:1000E000551D0008F91F0008FD1F00082DE9F84FF5
:1000F000824615460F469946A80000F03FFC5FEA8D
:10010000000B79D05C2000F039FC040071D00A9E0D
:10011000C4F830B0A522A900584600F009FD206BB4
:1001200000EB85010D1FED08ED0000217A5C6318DE
:1001300083F83420785C10B1491C1029F6D30020D4
:1001400084F84300062E0B9F88BF062604F144085E
:10015000E662C8F80C00C8F80860201D00F012FD27
:1001600004F1180000F00EFD2461C6F10706A66137
:1001700064620020C8F8100088F814004A4651460E
:10018000284600F03BFD206007B13C6000F098FD80
:10019000DFF8EC55DFF86066E86C401CE8644FF06F
:1001A0001409A86A60BBAC62E86C012830D1002752
:1001B00009FB07F0301800F0D8FC7F1C062FF7D998
:1001C00005F1740000F0D1FC05F18807384600F015
:1001D000CCFC284600F0C9FC05F1140000F0C5FC79
:1001E00005F1380000F0C1FC05F17400E8622F63EE
:1001F0000EE0584600F04BFC4FF0FF30BDE8F28FA8
:10020000A86D28B9E06AA96ACA6A904228BFAC62A0
:10021000A86E401CA866C8F8000000F040FB09FB6F
:1002200000F2211DB01800F0B0FC00F062FDA86DD6
:1002300008B100F055FB0120E0E738B5044600F0B6
:100240003FFDDFF83C5504B9AC6A00F0C2F900F09C
:100250003FF808B100F0E3F8A86E401CA866A86A51
:10026000844208D1211D05F1140000F08EFC686B5A
:10027000401C686307E0E86C401EE864204600F01C
:100280001CFA00F024FA00F034FDA86D20B1A96A30
:100290008C4201D100F02DF831BD80B588B1DFF876
:1002A000E024116F21B100F00FF800F088F9FEE7AB
:1002B000116F491C1167002100F024FB00F062F867
:1002C00008B900F077F901BD502080F3118870471C
:1002D00068B9E16ADFF8202514234B43D05830B9C0
:1002E000686D012202FA01F120EA01016965A06A44
:1002F0007047286F38B1502181F31188BFF34F8FB9
:10030000BFF36F8FFEE7DFF8F4154FF08050086001
:10031000BFF34F8FBFF36F8F7047211D14204243EF
:10032000981870473EB5DFF83C460FF2486104F17B
:100330009C00019000250095002380220FF21930C7
:10034000FFF7D4FE502101280ED181F3118800F06F
:1003500036F94FF0FF30E0660121A1652565BDE863
:10036000374000F069BC37BD10F1010FFBD181F3BC
:10037000118800F024F9FEE7DFF8E805016F491C59
:100380000167704770B5DFF8F863306F002400250F
:1003900028B9502181F3118800F011F9FEE700F02F
:1003A0008FFC306F401E3067306F002836D1F06C04
:1003B000D8B933E0F068C46800F031F800F009F90A
:1003C000E06A716DDFF838350122824011437165B2
:1003D00014225043211D184400F0D7FBE06AB16A93
:1003E000CA6A904224BF0121316630680028E1D1F9
:1003F0000CB100F06CF9F46D3CB100F014F808B1E8
:1004000001203066641EF8D1F565306E30B1DFF83A
:1004100058154FF08050012500F0D0F859E204F152
:10042000180000F0D8BB2DE9F843DFF85473386F9B
:10043000002600284FD13C6D641C3C6511D1F86A40
:10044000006828B1502181F3118800F0B8F8FEE768
:10045000F86A396BF9623863786E401C786600F090
:1004600036F9F86EDFF8989484424FF0140828D3D8
:100470001AE0281D00F0AFFBA86A18B105F11800BA
:1004800000F0A9FBE86A796D012282401143796589
:1004900008FB00F0291D484400F077FBE86AB96AC0
:1004A000CA6A904228BF0126F86A006830B1F86A2B
:1004B000C168CD6868688442DBD201E04FF0FF304C
:1004C000F866B86AC06A08FB00F059F80010022903
:1004D00004D3012602E0F86D401CF865386E00B1C7
:1004E0000126FAE1DFF89822106F10B101211166A0
:1004F000704710661421506DB0FA80F3C3F11F03EA
:100500004B43DFF8FC13C85838B9502181F31188E8
:10051000BFF34F8FBFF36F8FFEE7C81800F10803DA
:10052000416849684160994204BF49684160406838
:10053000C1689162704710B50C4620B9FFF7C4FE40
:1005400000F03DF8FEE7DFF83822936A03F1180166
:1005500000F028FB2046BDE81040FFE7012100F035
:10056000D1B938B5C068C46824B9FFF7ADFE00F052
:1005700026F8FEE7FFF753FFDFF80452286F60B953
:1005800000F027F8E26A686DDFF8743301219140CA
:1005900008436865FFF7C1FE02E004F11801284630
:1005A00000F0F3FA00F010F802D20120286632BD04
:1005B000002032BDDFF844134FF080500860BFF3D5
:1005C0004F8FBFF36F8F7047A86AC16AE06A81429C
:1005D0007047201D00F0FFBADFF888134A6E0260F2
:1005E000096D41607047F8B504460D46502024B9A6
:1005F00080F31188FFF7E3FFFEE725B980F3118848
:10060000FFF7DDFFFEE700F05BFBDFF85803016D4D
:1006100062682E688B1A16F1010F0ED0476ED4F85F
:1006200000C0674501D091420BD2B34207D2F31A02
:100630002B60416E2160006D6060002402E00020AC
:100640002860012400F055FB2046F2BDDFF81413AA
:10065000012008667047000070B5674CDFF804534E
:1006600011E000F02DFB286AC668301D00F0B3FAD7
:10067000E86C401EE864686B401E686300F039FB5C
:10068000304600F01AF8686B0028EAD12168022988
:10069000F9D3FFF78FFFF6E70146002000E0401C8A
:1006A00011F8012BA52AFAD08003000C704710B96D
:1006B000DFF8B002806A006BEEE710B50446206BED
:1006C00000F0E5F92046BDE8104000F0E0B92C4903
:1006D000C86A006810B94FF0FF3203E0C86AC26808
:1006E000D0684268CA667047DFF87812886D08B92A
:1006F00001207047086F08B902207047002070473A
:100700002DE9F04104460020002C35D01C4DE16A53
:10071000AA6AD36A994229D2A069002804D4A86A97
:10072000C16AC1F10701A1611427E16ADFF8D08134
:10073000606979434144884214D1FFF74AFF01269A
:10074000002801BFE16A07FB01F258F80200002807
:1007500000F05CF8A86AC06AE0628640696D00F04B
:100760004DF808E0A86AC16AE16204E0E16CAA6A97
:10077000D36A994200D20120BDE8F0810000000058
:10078000A42000202DE9F04104460021002C2FD0A8
:10079000DFF8D051A86A5022844204D082F3118835
:1007A000FFF70DFFFEE7206D00F080F8E26AE36CD2
:1007B000401E9A4220651BD0D0B9FFF70AFF0126E0
:1007C0001427DFF83C81002801BFE16A07FB01F232
:1007D00058F80200002800F019F8E06CE062C0F15F
:1007E0000700A061E06A696D864000F007F801210A
:1007F0000846BDE8F0810000442100200E43474335
:100800006E65211D08EB070000F0BFB905D1686DCA
:1008100006FA01F120EA010169657047F8B50400A4
:100820003CD0206D502200F041F8E36C994238BF73
:100830001946E36A8B4231D001282FD1DFF82451C9
:10084000A86A844204D182F31188FFF7B8FEFEE75C
:10085000A069DFF8AC60E16200285CBFC1F107016C
:10086000A161142761697B43F218914216D1FFF709
:10087000B0FE002801BFE16A07FB01F2B058002872
:1008800006D1686D012202FA01F120EA01016965D1
:1008900000F005F84743211DF01967E0F1BD012282
:1008A000E06A696D824011436965704730B982F32F
:1008B0001188BFF34F8FBFF36F8FFEE77047DFF8EC
:1008C000A410886A18B1886A026D521C0265886A91
:1008D000704700F00EFA284670BD3046BDE8F2833E
:1008E000A86AC16AE06A814207D21F4A4FF080516C
:1008F0001160BFF34F8FBFF36F8F704704ED00E0BF
:1009000044210020F8B5174D2F6D0C46A96A064604
:10091000081D00F060F930B9A86A696DC06A01224B
:1009200082409143696516F1010F05D124B1A86A8F
:10093000011D05F1380019E0A86AF6194660BE42AB
:10094000A86A05D2011D286BBDE8F44000F02AB961
:10095000011DE86A00F026F9E86E864238BFEE66AF
:10096000F1BD0000A420002004ED00E0BDE8F4404B
:1009700000F00BB949444C45000000002DE9F84354
:100980000446FFF7F9FC694FB8684FF000090025ED
:1009900008BB07F1180307F1180113F0070F4FF414
:1009A00000500A4605D0CA1DD208D200C2F5005038
:1009B000081880180838C008C0003A607D60B86028
:1009C00045600560831A5360106050683861F860B4
:1009D0004FF0004078614FF050087869044246D1EA
:1009E000002C44D0083414F0070F1FBF04F1080096
:1009F00004F00704041B14F0070F02D000F040F8C5
:100A0000FEE7A4B3F868A04231D33E68394601E05E
:100A1000314606467068A04202D230680028F7D1FD
:100A2000B868864223D00A683068086002F1080975
:100A30007268121B112A0CD3311911F0070002D071
:100A400000F01EF8FEE7301D02517460084600F009
:100A500048F87168F8683A69401AF860904238BFFF
:100A60003861786901437160356009F00705FFF767
:100A700089FC15B100F004F8FEE74846BDE8F283B2
:100A800088F31188BFF34F8FBFF36F8F7047002833
:100A900000D1704738B5A0F10804244D61686A6937
:100AA0005023114202D100F015F8FEE7206810B182
:100AB00000F010F8FEE791436160FFF75DFCE96824
:100AC00060684118E960204600F00BF8BDE831404D
:100AD000FFF758BC83F31188BFF34F8FBFF36F8FBD
:100AE000704730B511490A4600E01A461368834240
:100AF000FBD35368D418844203D14068C3185360B1
:100B0000104643681468C518A54208D189688C420C
:100B100004D06168CB184360246800E00C46046090
:100B2000824218BF106030BD000000008C00002021
:100B300062F30F2262F31F4200B500BF1300964616
:100B40009446103928BFA0E80C50FAD85FEA417CDF
:100B500028BF0CC048BF40F8042BC90728BF20F8A5
:100B6000022B48BF00F8012B00BD4FF0FF3200F10F
:100B7000080182604160C16000F108020261002149
:100B80000160704700210161704710B542684A60FA
:100B900093688B6094686160916008610168491C8A
:100BA000016010BD30B50A6812F1010F08BF03697A
:100BB00007D000F1080300E023465C682568AA42DC
:100BC000FAD25A684A6091608B6059600861016886
:100BD000491C016030BD4368016982689A6083687E
:100BE00042685A604A68824204BF83684B600022B0
:100BF00002610868401E086008687047490810B51F
:100C00004900A0F10C034FF0807459609C600FF212
:100C10000D01196040F8202D203810BD53494A6855
:100C2000502012F1010F80F31188BFF34F8FBFF3F3
:100C30006F8F00D0FEE7FEE71CB54D490A780192A0
:100C4000FF230B7007220C788DF800409DF8000000
:100C5000464C00F050002070A26006E0401EA060EC
:100C60009DF8000040008DF80000A0689DF800206D
:100C70001306F3D4C0F10702042A02D000F018F8DA
:100C8000FEE7000200F4E060A060019808703948B7
:100C9000016841F470010160026842F07042026034
:100CA00000F070F80020606000F0B1F8002016BD80
:100CB000502080F31188BFF34F8FBFF36F8F7047C1
:100CC000502080F31188BFF34F8FBFF36F8F2749F8
:100CD0004A68521C012A4A600AD127490A68130649
:100CE00006D080F31188BFF34F8FBFF36F8FFEE7FD
:100CF00070471E49486838B9502080F31188BFF307
:100D00004F8FBFF36F8FFEE7401E486008BF80F330
:100D10001188704780B5FFF7CBFFFFF784FB18B150
:100D200015494FF080500860002282F3118801BD00
:100D300010B5EFF30580502110280C4A09D30F4B52
:100D4000185C1478A04204D281F31188FFF7B3FF36
:100D5000FEE790680A4A136803F4E063984204D2FD
:100D600081F31188FFF7A7FFFEE710BD7400002094
:100D700000E400E020ED00E004ED00E0F0E300E03E
:100D80000CED00E00648074B002101608160642201
:100D90001968B1FBF2F2521E4260072101607047F0
:100DA00010E000E080000020EFF30980BFF36F8FB8
:100DB0001D4B1A6820E9F00F106008B54FF0500085
:100DC00080F31188BFF34F8FBFF36F8FFFF78AFB5C
:100DD0004FF0000080F31188BDE8084019680868EA
:100DE000B0E8F00F80F30988BFF36F8F70470E4BA8
:100DF00019680868B0E8F00F80F30988BFF36F8FB7
:100E00004FF0000080F311884EF00D0E7047074838
:100E10000068006880F3088862B661B6BFF34F8F40
:100E2000BFF36F8F00DF0000CC20002008ED00E052
:100E3000010008D4012200F01F01DFF8FC368A40CF
:100E4000400943F8202070470901020003D4DFF86D
:100E5000EC0681547047DFF8E83602F00F021A44BE
:100E600002F8041C7047DFF8DC1681B00A68024300
:100E70000A60096808400090009801B0704730B5DA
:100E800000F010F80F2503E030B500F00BF8032553
:100E90009B00B1FA81F19D408900AC438A40224316
:100EA000026030BD00EB116091FAA1F3B3FA83F355
:100EB00091FAA1F10468704730B5FFF7F3FF0425FC
:100EC000E6E7C368090A8B4391FAA1F1B1FA81F10F
:100ED0008A401A43C2607047C268C1F30F214A407A
:100EE000C26070470FF2EC620A4412F8011C081845
:100EF000036843F00103036070470FF2D8620A44AD
:100F000012F8011C081803685B085B000360704757
:100F100010B50FF2C0630B4413F8011C08180468E5
:100F20006FF30E142243026010BD0FF2A863194440
:100F300011F8012C105844F21001084070470FF2CC
:100F400094630B4413F8011C081843681B0C42EA15
:100F500003424260704730B50FF27865039C0D4440
:100F600015F8011C0818102C02D1C260836030BD36
:100F70008260C36030BD0FF25C620A4412F8011C4B
:100F80000818036843F00203036070470FF24462DD
:100F90000A4412F8011C0818036843F008030360B0
:100FA00070471CB500F028FA00F0DBF900220C2194
:100FB0000120DFF8944500F04FFBA06100F042F8FB
:100FC000A06000F03FF8A169E06000291CBFA168A3
:100FD000002935D0A0B3002001210190009104F137
:100FE000240380220FF2C8510FF21910FFF77EF888
:100FF000002002210190009180220FF2A0530FF2F5
:10100000B8510FF22510FFF771F820690190042103
:101010000091002380220FF2A8510FF2B900FFF7D0
:1010200065F86069019000210091002380220FF291
:1010300098510FF21D00FFF759F8FFF773F9FEE71B
:10104000002016BD03220021012000F005BB000096
:101050003EB50020DFF8F0440FF280551EE0DFF8C7
:10106000EC1420200860192104F1340013E0192148
:1010700000F0BBFC9DF8080001992070032228466F
:1010800000F0ABF90028EAD04FF47A7000F074F960
:101090001D2104F1500000F02FF90020FFF707FB9D
:1010A000E06100208DF800001922A069694600F077
:1010B00019FC9DF80010A068491E012902D9891E5B
:1010C000D5D0EAE7192100F090FC9DF808100198AE
:1010D0002170E0E710B50020DFF86C44FFF7E7FA75
:1010E000E06100F054F900F0A1F800F03EF800F0E3
:1010F00024F90020FFF7DBFAE0612069FFF79DF893
:10110000EFE700003EB500F02AF8E86101218DF814
:101110000010102100F01AF80020FFF7C8FAE8616B
:101120000A20FFF7BAF8F1E73EB500F018F8E861D9
:1011300002218DF80010142100F008F80020FFF7BC
:10114000B6FAE8610A20FFF7A8F8F1E78DF8081071
:1011500001940023A8690A22694600F0A7BA044650
:101160000020DFF8E453FFF7A2BA7CB5DFF8E00314
:10117000DFF8E0430168DFF8E053DFF8CC6341F0CB
:10118000010101600721006800F0010000901120BA
:10119000009AFFF759FE1120FFF74AFE06211020A2
:1011A000FFF752FEDFF890134FF48030086042F2F0
:1011B000900207212046FFF7ABFE07212046FFF7EC
:1011C000B4FE00902B46DFF8942307212046FFF75A
:1011D000C2FE327807212046FFF7B1FE42F2A0029C
:1011E00006212046FFF794FE06212046FFF79DFECC
:1011F000009006F170032A4606212046FFF7ABFE59
:10120000F27806212046FFF79AFE07212046FFF7D5
:10121000B2FE07212046FFF7B9FE06212046FFF760
:10122000AAFE2046BDE87C400621AFE638B5042082
:10123000FFF719FEDFF82803DFF82843016841F4BF
:101240000031016040F20445006800F40030009075
:101250000922009829462046FFF711FE00F044F8C5
:1012600000F046F800F03CF840F60805092229464F
:101270002046FFF704FE00F037F800F039F800F0E0
:101280002FF8DFF8E422DFF8E432506840F00C0079
:1012900050601921506820F4B05050606424906868
:1012A00020F4405090601868400848434FF41643BB
:1012B000B0FBF3F1B1FBF4F304FB1311090132317C
:1012C000B1FBF4F000F0F00101EB031100F00F00AE
:1012D000401880B21060506840F40050506031BD3A
:1012E000012229462046ECE5032229462046CBE58B
:1012F000002229462046DFE57CB5044692480D468B
:1013000081788A0718D58178924E01F0FD018170AD
:1013100030460721FFF709FE009022468E4B072139
:101320003046FFF718FE2A4607213046FFF707FE32
:101330003046BDE87C4012E073BD10B58C48854C4A
:10134000016841F0400101600621026842F080021C
:1013500002602046FFF7C6FD2046BDE81040072189
:10136000C0E580B50420FFF77EFDBDE808400122FE
:1013700042F220017B4882E580B542F220017948A3
:10138000FFF7AAFDBDE802406420FEF786BF80B5E6
:101390001020FFF768FD082276497748FFF76FFDB8
:1013A0000120FFF760FD7548016821F0F00141F070
:1013B000200101607248016841F400510160082178
:1013C000C26842F40052C2602820FFF73DFD6D491B
:1013D0004FF48070086001BD000010B513465A1E1E
:1013E000DBB23BB110F8013B11F8014BA342F5D041
:1013F000012010BD002010BD10B564480168C90867
:10140000C90041F0020101606148016841F4802196
:101410000160026842F48032026001688903FCD5F1
:10142000426822F47C1242F4E8124260016841F002
:101430008071016001688901FCD5426822F0F002E8
:10144000426041688908890041F0020141604168B9
:1014500001F00C010829FAD141684E4C21F4E061F9
:1014600041F480614160416821F46051416020464F
:1014700000F0F4FB2046BDE8104000F0FBBB424901
:101480000120087070473048817841F00101817077
:10149000704710B52C4C002020620121617007219B
:1014A000A07840F00200A0702A48FFF726FDA0684F
:1014B00004F1200100F0D4F901281CBF4FF47A7028
:1014C000FFF75AFF206A00F01DF810BD1FB500207D
:1014D0001D4C0090012121710321A07840F00800EB
:1014E000A07004F170028DF8041002928DF80C10B7
:1014F0000023A0696A4601A900F06DF9009800F088
:1015000001F81FBD38B124484FF080510160BFF38E
:101510004F8FBFF36F8F704710B50E4C07212046D9
:10152000FFF7EBFC06212046FFF7E7FCBDE8104083
:101530004FF47A7020E7000000E100E000E400E0F2
:1015400018ED00E0181002400000002010080140D3
:101550001410024000000240044400409C1C00089B
:101560001C10024000080140084400408000002098
:1015700014440040200020040010014014000140E9
:101580000004014004E100E0D021002000200240DE
:101590000010024000A24A0404ED00E05461736BA5
:1015A00020322069732072756E6E696E670D0A00B5
:1015B0005461736B203100005461736B2032000062
:1015C0005461736B20300000476174656B65657012
:1015D00065720000081C3044586C8000454E440081
:1015E00038B504000D4602D100F058F8FEE7FFF7C9
:1015F00067FBE26B206C2168424388186060002121
:10160000A1632068E26BA060521E206C21684243F7
:101610008818E0604FF0FF3104F144000170417020
:1016200075B92069A0B104F11000FEF79AFF78B1F6
:10163000DFF824164FF08050086000F080FA07E0D1
:1016400004F11000FFF791FA04F12400FFF78DFA7E
:10165000FFF74FFB012032BDF8B506000C461746D8
:1016600002D100F01BF8FEE7002C0EBF502004FB57
:1016700006F05030FFF782F905000DD0002C0EBFA8
:101680002D6005F150002860EE632C64012128468E
:10169000FFF7A6FF85F84C702846F2BD502080F376
:1016A0001188BFF34F8FBFF36F8F70472DE9F64757
:1016B00082B004461E46502714B900F03EFAFEE7F9
:1016C0005FEA010A01D1206C60B9022E02D1E06B01
:1016D00001280AD1FFF708F850B9039840B100F08B
:1016E0002CFAFEE700F029FAFEE700F026FAFEE702
:1016F0002746002400F074F92EE0039800284BD010
:1017000014B900F00DFA0124FFF7F3FAFEF734FEE6
:10171000FFF7D6FA07F1440000F005FA04BF0022F3
:10172000027000F005FA04BF00224270FFF7E1FAF0
:1017300000F04DF8002844D1FFF7C2FAB86BF96BFE
:10174000884214BF00250125FFF7D3FA45BB384670
:1017500000F042FAFEF716FEFFF7B2FAB86BF96B2B
:10176000884201D3022EC8D132465146384600F095
:10177000EBF9796A29B107F12400FEF7F2FE08B906
:1017800004E018B1C8F8009000F0D9F9FFF7B1FAF9
:10179000012004B0BDE8F087FFF7ABFA0020F8E7BE
:1017A000039907F11000FEF7C6FE384600F014FA60
:1017B000FEF7E8FD0028CFD1C8F8009000F0BFF98F
:1017C000CAE7384600F008FAFEF7DCFDE6E703A9B1
:1017D0006846FEF708BF2DE9F843044688461546DB
:1017E0001E46502714B900F0A8F9FEE7B8F1000F23
:1017F00001D1206C20BB022E02D1E06B012822D146
:10180000FFF796FAEFF3118900F062F801D3022E88
:1018100021D194F9457032464146204600F094F9B2
:1018200017F1010F12D1606A98B104F12400FEF79C
:1018300098FE002818BF002D0BD00120286008E07A
:1018400000F07BF9FEE700F078F9FEE77F1C84F8F2
:101850004570012000E0002089F31188BDE8F28383
:10186000F8B504460D46502714B900F066F9FEE7B6
:10187000206C10B100F061F9FEE7206808B96068DB
:10188000D0B9FFF755FAEFF3118600F021F81BD21B
:1018900094F94510401C11F1010FA0630FD1606A4B
:1018A00080B104F12400FEF75CFE002818BF002D73
:1018B00008D00120286005E000F03FF9FEE7491C50
:1018C00084F84510012000E0002086F31188F2BD65
:1018D00087F31188BFF34F8FBFF36F8FA06BE16B5E
:1018E000884270472DE9F74306460F4600245025ED
:1018F00026B985F3118800F022F9FEE70FB9306CA4
:1019000048B9FEF7F1FE78B9029868B185F31188FD
:1019100000F015F9FEE785F3118800F010F9FEE7F5
:1019200000F0FCF8FEF72EFDFFF7CAF9B56B00F0EA
:1019300057F82DB90298C8B9FFF7DBF9002013E07A
:101940003946304600F034F96D1EB563306940B158
:1019500006F11000FEF705FE18B1C8F8009000F07F
:10196000EEF8FFF7C6F90120BDE8FE8314B900F0D8
:10197000D7F80124FFF7BDF9FEF7FEFCFFF7A0F949
:1019800006F14400415711F1010F04BF002202701B
:1019900000F0CEF804BF00224270FFF7AAF902A9B6
:1019A000FFF716FF0028304610D100F049F9002853
:1019B000B6D000F0AEF800F0B1F8FEF7E3FC002876
:1019C000B2D1C8F8009000F0BAF8ADE700F004F921
:1019D000FEF7D8FC304600F033F90028A4D0ADE77C
:1019E000DFF874824FF0805970472DE9F24382B0DE
:1019F000064600240025502716B900F09EF8FEE7A1
:101A0000306C10B100F099F8FEE7FEF76DFE40B9BA
:101A1000029830B100F091F8FEE700F07FF8FEF791
:101A2000B1FCFFF74DF9B06BFFF7DAFF30B9029860
:101A3000D0B9002D68D000F080F8FEE7401EB063FA
:101A4000306810B9FEF73BFF7060306940B106F1B5
:101A50001000FEF786FD18B1C8F8009000F06FF88E
:101A6000FFF747F9012052E014B900F059F80124BA
:101A7000FFF73FF9FEF780FCFFF722F906F144007B
:101A800000F051F804BF0022027000F051F804BFCA
:101A900000224270FFF72DF902A9FFF799FE0028F6
:101AA00030461AD100F0CCF80028B6D0306838B9EA
:101AB000FFF706F97068FEF723FE0546FFF719F9F0
:101AC00000F027F800F02AF8FEF75CFC0028A8D107
:101AD000C8F8009000F033F8A3E700F07DF8FEF7B7
:101AE00051FC304600F0ACF800289AD075B1FFF7F1
:101AF000E7F8706A00281DBF306B0168C1F107016B
:101B000000217068FEF78AFEFFF7F3F80020BDE8B9
:101B1000FE83029906F12400FEF70DBD30465BE01E
:101B20006846FEF759BD90F9001011F1010F70479A
:101B300090F9011011F1010F704787F31188BFF37D
:101B40004F8FBFF36F8F7047F8B506461546B46BDD
:101B5000326C002742B9306830BB7068FEF712FE65
:101B60000021074671601FE065B9B06800F08AF88F
:101B7000B068316C726808449042B06014D3306829
:101B8000B06011E0F06800F07DF8306CF168404220
:101B90000144F1603268914202D271680844F060F9
:101BA000022D01D104B1641E641CB4633846F2BD39
:101BB000026C002A0B4600D1704710B5C16844681A
:101BC0001144C160A14224BF0168C160C168BDE881
:101BD0001040184600F056B8F8B50546FFF770F803
:101BE00005F1440494F9016007E005F12400FEF7D3
:101BF000B8FC08B1FEF72AFD761E70B2012802DBA0
:101C0000686A0028F1D14FF0FF366670FFF771F86F
:101C1000FFF756F894F9007007E005F11000FEF7A1
:101C2000A0FC08B1FEF712FD7F1E78B2012802DB8E
:101C300028690028F1D12670BDE8F140FFF759B8B6
:101C400010B50446FFF73CF8A06B441EA441FFF713
:101C500050F8E00F10BD000004ED00E04FF47A7280
:101C60000649B0FBF2F0401E486000238B6005205F
:101C700008607047024908607047000010E000E00B
:101C8000800000204AB1000011F8013B521E00F80C
:101C9000013B1CBF11F8013BF8E7704753544D332B
:101CA0003246317878205553415254204C4C2041D3
:101CB0005049204578616D706C65203A2054582F4A
:101CC000525820696E20444D41206D6F64650D0AA5
:101CD000436F6E66696775726174696F6E205541F6
:101CE000525420313135323030206270732C20381C
:101CF0002064617461206269742F312073746F7085
:101D0000206269742F4E6F207061726974792F4E52
:101D10006F20485720666C6F7720636F6E74726F08
:101D20006C0D0A506C6561736520656E7465722078
:101D300027454E442720737472696E67202E2E2E1D
:101D40000D0A00007047FEE7FEE7FEE7FEE770477A
:101D5000FEF7E0BF17480168890404D54FF400522C
:101D60000260FFF78CBB704713480168490104D536
:101D70004FF080624260FFF786BB0168890104D59D
:101D80004FF080724260FFF784BB0068000148BFDB
:101D9000FFF7C2BB704708480168890204D54FF4B9
:101DA00080124260FFF792BB0068000248BFFFF755
:101DB000B3BB7047140401400000024010B50E4A46
:101DC0000E49106840F00100106053680C480B4049
:101DD0005360146804401460116821F4802111607C
:101DE0004FF41F01506820F4FE00506091604FF0E6
:101DF0000060044A106010BD001002400000FFF8AF
:101E0000FFFFF6FE08ED00E030B4002513E050F8C7
:101E1000042BD30744BFA9F101039A18091F042911
:101E200042F8045BFAD213468C0744BF15809B1C12
:101E3000C90748BF1D7050F8041B0029E7D130BC0A
:101E4000704730B5016884684218416802EB51035D
:101E5000C90703D54C4401E0491C05D19A420AD078
:101E600012F9011B12F8015B002904F8015BF3D49D
:101E7000491EF7D5F2E70C3030BD000010B500F078
:101E800013F802000023DB4300241068984203D0BB
:101E900011000220ABBE14605068984203D0111D9F
:101EA0000220ABBE546010BD014870470000000026
:101EB0008400002010B5074979441831064C7C4451
:101EC000163404E00A68081D114488470146A142FF
:101ED000F8D110BD08000000240000002DFFFFFF16
:101EE000482100008C0000200000000057FFFFFF89
:101EF00010010000BA0000000000002000F00DF802
:101F0000002801D0FFF7D6FFAFF300800020AFF329
:101F10000080FFF746F800F002F80120704700F05B
:101F200001B800000746384600F002F8FBE7000061
:101F300080B5FFF7A3FF024A11001820ABBEFBE7F4
:101F4000260002000148804701480047BD1D0008E7
:101F5000551F0008AFF30080AFF30080FFF7CEFFFE
:101F6000FFF7FEBFFFF7FEBFFFF7FEBFFFF7FEBFA5
:101F7000FFF7FEBFFFF7FEBFFFF7FEBFFFF7FEBF95
:101F8000FFF7FEBFFFF7FEBFFFF7FEBFFFF7FEBF85
:101F9000FFF7FEBFFFF7FEBFFFF7FEBFFFF7FEBF75
:101FA000FFF7FEBFFFF7FEBFFFF7FEBFFFF7FEBF65
:101FB000FFF7FEBFFFF7FEBFFFF7FEBFFFF7FEBF55
:101FC000FFF7FEBFFFF7FEBFFFF7FEBFFFF7FEBF45
:101FD000FFF7FEBFFFF7FEBFFFF7FEBFFFF7FEBF35
:101FE000FFF7FEBFFFF7FEBFFFF7FEBFFFF7FEBF25
:101FF000FFF7FEBFFFF7FEBFFFF7FEBFFFF7FEBF15
:1020000003A7000003E000284920414D20494E204D
:102010005441534B310D0A0052656365697665641E
:1020200020737472696E67206D6174636865640DF6
:102030000AFD001C526563656976656420737472DD
:10204000696E67206E6F74206D6174636865640DDE
:0D2050000AF500FCAAFB000224F400F8FFD2
:0400000508001F557B
:00000001FF
